{
  "contractName": "Business",
  "abi": [
    {
      "constant": true,
      "inputs": [
        {
          "internalType": "string",
          "name": "",
          "type": "string"
        },
        {
          "internalType": "uint256",
          "name": "",
          "type": "uint256"
        }
      ],
      "name": "patientPrescriptions",
      "outputs": [
        {
          "internalType": "string",
          "name": "prescriptionHash",
          "type": "string"
        },
        {
          "internalType": "string",
          "name": "patientId",
          "type": "string"
        },
        {
          "internalType": "string",
          "name": "doctorName",
          "type": "string"
        },
        {
          "internalType": "uint256",
          "name": "timestamp",
          "type": "uint256"
        }
      ],
      "payable": false,
      "stateMutability": "view",
      "type": "function"
    },
    {
      "constant": false,
      "inputs": [
        {
          "internalType": "string",
          "name": "_prescriptionHash",
          "type": "string"
        },
        {
          "internalType": "string",
          "name": "_patientId",
          "type": "string"
        },
        {
          "internalType": "string",
          "name": "_doctorName",
          "type": "string"
        }
      ],
      "name": "set",
      "outputs": [],
      "payable": false,
      "stateMutability": "nonpayable",
      "type": "function"
    },
    {
      "constant": true,
      "inputs": [
        {
          "internalType": "string",
          "name": "_patientId",
          "type": "string"
        }
      ],
      "name": "getLogs",
      "outputs": [
        {
          "internalType": "string[]",
          "name": "",
          "type": "string[]"
        },
        {
          "internalType": "string[]",
          "name": "",
          "type": "string[]"
        },
        {
          "internalType": "uint256[]",
          "name": "",
          "type": "uint256[]"
        }
      ],
      "payable": false,
      "stateMutability": "view",
      "type": "function"
    }
  ],
  "bytecode": "0x608060405234801561001057600080fd5b50610e19806100206000396000f3fe608060405234801561001057600080fd5b50600436106100415760003560e01c806312367db0146100465780631c0b75e814610079578063da465d74146100ab575b600080fd5b610060600480360361005b9190810190610957565b6100c7565b6040516100709493929190610bce565b60405180910390f35b610093600480360361008e919081019061087f565b6102ef565b6040516100a293929190610b82565b60405180910390f35b6100c560048036036100c091908101906108c0565b610616565b005b60008280516020810182018051848252602083016020850120818352809550505050505081815481106100f657fe5b906000526020600020906004020160009150915050806000018054600181600116156101000203166002900480601f0160208091040260200160405190810160405280929190818152602001828054600181600116156101000203166002900480156101a35780601f10610178576101008083540402835291602001916101a3565b820191906000526020600020905b81548152906001019060200180831161018657829003601f168201915b505050505090806001018054600181600116156101000203166002900480601f0160208091040260200160405190810160405280929190818152602001828054600181600116156101000203166002900480156102415780601f1061021657610100808354040283529160200191610241565b820191906000526020600020905b81548152906001019060200180831161022457829003601f168201915b505050505090806002018054600181600116156101000203166002900480601f0160208091040260200160405190810160405280929190818152602001828054600181600116156101000203166002900480156102df5780601f106102b4576101008083540402835291602001916102df565b820191906000526020600020905b8154815290600101906020018083116102c257829003601f168201915b5050505050908060030154905084565b6060806060600080856040516103059190610b6b565b908152602001604051809103902080549050905060608160405190808252806020026020018201604052801561034f57816020015b606081526020019060019003908161033a5790505b50905060608260405190808252806020026020018201604052801561038857816020015b60608152602001906001900390816103735790505b5090506060836040519080825280602002602001820160405280156103bc5781602001602082028038833980820191505090505b50905060008090505b84811015610601576000896040516103dd9190610b6b565b908152602001604051809103902081815481106103f657fe5b90600052602060002090600402016000018054600181600116156101000203166002900480601f01602080910402602001604051908101604052809291908181526020018280546001816001161561010002031660029004801561049b5780601f106104705761010080835404028352916020019161049b565b820191906000526020600020905b81548152906001019060200180831161047e57829003601f168201915b50505050508482815181106104ac57fe5b60200260200101819052506000896040516104c79190610b6b565b908152602001604051809103902081815481106104e057fe5b90600052602060002090600402016002018054600181600116156101000203166002900480601f0160208091040260200160405190810160405280929190818152602001828054600181600116156101000203166002900480156105855780601f1061055a57610100808354040283529160200191610585565b820191906000526020600020905b81548152906001019060200180831161056857829003601f168201915b505050505083828151811061059657fe5b60200260200101819052506000896040516105b19190610b6b565b908152602001604051809103902081815481106105ca57fe5b9060005260206000209060040201600301548282815181106105e857fe5b60200260200101818152505080806001019150506103c5565b50828282965096509650505050509193909250565b61061e6106f5565b60405180608001604052808581526020018481526020018381526020014281525090506000836040516106519190610b6b565b9081526020016040518091039020819080600181540180825580915050906001820390600052602060002090600402016000909192909190915060008201518160000190805190602001906106a792919061071d565b5060208201518160010190805190602001906106c492919061071d565b5060408201518160020190805190602001906106e192919061071d565b506060820151816003015550505050505050565b6040518060800160405280606081526020016060815260200160608152602001600081525090565b828054600181600116156101000203166002900490600052602060002090601f016020900481019282601f1061075e57805160ff191683800117855561078c565b8280016001018555821561078c579182015b8281111561078b578251825591602001919060010190610770565b5b509050610799919061079d565b5090565b6107bf91905b808211156107bb5760008160009055506001016107a3565b5090565b90565b600082601f8301126107d357600080fd5b81356107e66107e182610c55565b610c28565b9150808252602083016020830185838301111561080257600080fd5b61080d838284610d6c565b50505092915050565b600082601f83011261082757600080fd5b813561083a61083582610c81565b610c28565b9150808252602083016020830185838301111561085657600080fd5b610861838284610d6c565b50505092915050565b60008135905061087981610dbf565b92915050565b60006020828403121561089157600080fd5b600082013567ffffffffffffffff8111156108ab57600080fd5b6108b784828501610816565b91505092915050565b6000806000606084860312156108d557600080fd5b600084013567ffffffffffffffff8111156108ef57600080fd5b6108fb86828701610816565b935050602084013567ffffffffffffffff81111561091857600080fd5b61092486828701610816565b925050604084013567ffffffffffffffff81111561094157600080fd5b61094d86828701610816565b9150509250925092565b6000806040838503121561096a57600080fd5b600083013567ffffffffffffffff81111561098457600080fd5b610990858286016107c2565b92505060206109a18582860161086a565b9150509250929050565b60006109b78383610adb565b905092915050565b60006109cb8383610b4d565b60208301905092915050565b60006109e282610ccd565b6109ec8185610d13565b9350836020820285016109fe85610cad565b8060005b85811015610a3a5784840389528151610a1b85826109ab565b9450610a2683610cf9565b925060208a01995050600181019050610a02565b50829750879550505050505092915050565b6000610a5782610cd8565b610a618185610d24565b9350610a6c83610cbd565b8060005b83811015610a9d578151610a8488826109bf565b9750610a8f83610d06565b925050600181019050610a70565b5085935050505092915050565b6000610ab582610cee565b610abf8185610d57565b9350610acf818560208601610d7b565b80840191505092915050565b6000610ae682610ce3565b610af08185610d35565b9350610b00818560208601610d7b565b610b0981610dae565b840191505092915050565b6000610b1f82610ce3565b610b298185610d46565b9350610b39818560208601610d7b565b610b4281610dae565b840191505092915050565b610b5681610d62565b82525050565b610b6581610d62565b82525050565b6000610b778284610aaa565b915081905092915050565b60006060820190508181036000830152610b9c81866109d7565b90508181036020830152610bb081856109d7565b90508181036040830152610bc48184610a4c565b9050949350505050565b60006080820190508181036000830152610be88187610b14565b90508181036020830152610bfc8186610b14565b90508181036040830152610c108185610b14565b9050610c1f6060830184610b5c565b95945050505050565b6000604051905081810181811067ffffffffffffffff82111715610c4b57600080fd5b8060405250919050565b600067ffffffffffffffff821115610c6c57600080fd5b601f19601f8301169050602081019050919050565b600067ffffffffffffffff821115610c9857600080fd5b601f19601f8301169050602081019050919050565b6000819050602082019050919050565b6000819050602082019050919050565b600081519050919050565b600081519050919050565b600081519050919050565b600081519050919050565b6000602082019050919050565b6000602082019050919050565b600082825260208201905092915050565b600082825260208201905092915050565b600082825260208201905092915050565b600082825260208201905092915050565b600081905092915050565b6000819050919050565b82818337600083830152505050565b60005b83811015610d99578082015181840152602081019050610d7e565b83811115610da8576000848401525b50505050565b6000601f19601f8301169050919050565b610dc881610d62565b8114610dd357600080fd5b5056fea365627a7a72315820d612ca252a5191e78ac448f60b7eb394f4c3eec11fb09b64b114f34765a262ba6c6578706572696d656e74616cf564736f6c63430005100040",
  "source": "pragma solidity >=0.4.21 <0.6.0;\r\npragma experimental ABIEncoderV2;\r\n\r\ncontract Business {\r\n    struct Prescription {\r\n        string prescriptionHash;\r\n        string patientId;\r\n        string doctorName;\r\n        uint256 timestamp;\r\n    }\r\n\r\n    // Mapping of patient ID to their prescription logs\r\n    mapping(string => Prescription[]) public patientPrescriptions;\r\n\r\n    // Store new prescription log\r\n    function set(\r\n        string memory _prescriptionHash,\r\n        string memory _patientId,\r\n        string memory _doctorName\r\n    ) public {\r\n        Prescription memory newPrescription = Prescription({\r\n            prescriptionHash: _prescriptionHash,\r\n            patientId: _patientId,\r\n            doctorName: _doctorName,\r\n            timestamp: block.timestamp\r\n        });\r\n\r\n        patientPrescriptions[_patientId].push(newPrescription);\r\n    }\r\n\r\n    // Retrieve all logs for a specific patient ID\r\n    function getLogs(string memory _patientId)\r\n        public\r\n        view\r\n        returns (\r\n            string[] memory,\r\n            string[] memory,\r\n            uint256[] memory\r\n        )\r\n    {\r\n        uint256 length = patientPrescriptions[_patientId].length;\r\n\r\n        string[] memory hashes = new string[](length);\r\n        string[] memory doctorNames = new string[](length);\r\n        uint256[] memory timestamps = new uint256[](length);\r\n\r\n        for (uint256 i = 0; i < length; i++) {\r\n            hashes[i] = patientPrescriptions[_patientId][i].prescriptionHash;\r\n            doctorNames[i] = patientPrescriptions[_patientId][i].doctorName;\r\n            timestamps[i] = patientPrescriptions[_patientId][i].timestamp;\r\n        }\r\n\r\n        return (hashes, doctorNames, timestamps);\r\n    }\r\n}\r\n",
  "sourcePath": "C:\\Users\\kesha\\Downloads\\starter_kit\\src\\contracts\\Business.sol",
  "compiler": {
    "name": "solc",
    "version": "0.5.16+commit.9c3226ce.Emscripten.clang"
  },
  "schemaVersion": "3.4.16",
  "updatedAt": "2025-03-31T06:29:00.844Z",
  "networkType": "ethereum",
  "devdoc": {
    "methods": {}
  },
  "userdoc": {
    "methods": {}
  }
}